S01400004665656465725F326D6D56322E73726563D2
S11300000C9486000C940B0E0C94320E0C94A301E9
S11300100C94E0010C9436020C94AE000C94AE00E7
S11300200C94AE000C9431070C94AE000C94AE000A
S11300300C94AE000C94AE000C94AE000C94AE0084
S11300400C94590E0C94AE000C94990C0C94CB0C9B
S11300500C94AE000C94AE000C94AE000C94AE0064
S11300600C94EF120C94AE000C94AE000C94AE0001
S11300700C94AE000C94AE000C94AE000C94AE0044
S11300800C94AE000C94AE000C94AE000C94AE0034
S11300900C94AE000C94AE000C94AE000C94AE0024
S11300A00C94AE000C94AE000C94AE000C94AE0014
S11300B00C94AE00000000080002010000030407D5
S11300C0000000000000000001020408102040802D
S11300D0010204081020010204081020040404048E
S11300E004040404020202020202030303030303DE
S11300F000000000250028002B0000000000240060
S113010027002A004307FB0C5B11670711241FBE5D
S1130110CFEFD8E0DEBFCDBF11E0A0E0B1E0EEE16B
S1130120F9E202C005900D92A434B107D9F723E097
S1130130A4E4B1E001C01D92A235B207E1F710E0DA
S1130140C5E8D0E004C02197FE010E946614C238BD
S1130150D107C9F70E94290D0C9482140C94000055
S11301600895FC01608341830895FC0194B121E06A
S113017030E0A901008002C0440F551F0A94E2F741
S1130180018002C0220F331F0A94E2F7242B292B8B
S113019024B90895CF93DF93EC0160956A836FEFE0
S11301A070E089E00E94560F6A8170E08AE0DF9176
S11301B0CF910C94560F6095FC01638370E089E045
S11301C00E94560F6FEF70E08AE00C94560F6FEFA9
S11301D070E089E00E94560F6FEF70E08AE00E94A1
S11301E0560F6AE070E080E090E00C94D40E8091A9
S11301F0610180936001809162018093610180912B
S1130200B200809362011092B2008091D6018130D5
S113021031F48091D7019091D801019614C0809156
S1130220D6018F3F31F48091D7019091D801019785
S11302300AC088E491E00E94A8092091D701309176
S1130240D801820F931F9093D8018093D701809196
S1130250CE019091CF012091D7013091D801AC010A
S11302604F5F5F4F4217530731F421E030E0309382
S1130270D8012093D7012091D7013091D8019695C8
S113028087958217930761F48EE491E00E949409A4
S1130290811106C08CE491E00E9494098823C9F07E
S11302A08091CD01811106C08091D7019091D80130
S11302B0019791F08091D7019091D801892BD9F4BD
S11302C08091CE019091CF019093D8018093D70172
S11302D008951092CD01E4CF80E591E00E94E700FB
S11302E01092D60186E591E00E94DD0984E591E053
S11302F00E94CD09DFCF089588E491E00E94A80907
S11303000197F1F48091C7019091C8012091D70120
S11303103091D801FC01ED59FE4F208301968336BC
S1130320910529F09093C8018093C70104C01092ED
S1130330C8011092C70181E08093D4018093D90150
S113034008950C946C141F920F920FB60F921124FF
S11303502F933F934F935F936F937F938F939F93C9
S1130360AF93BF93EF93FF938AE491E00E94F00967
S11303708823A9F08091D601811111C084EF91E006
S11303800E94100F8AE491E00E94F009882339F05A
S113039086E591E00E94CD0981E08093D601FF912A
S11303A0EF91BF91AF919F918F917F916F915F91E9
S11303B04F913F912F910F900FBE0F901F90189562
S11303C01F920F920FB60F9211242F933F934F93C6
S11303D05F936F937F938F939F93AF93BF93EF93A9
S11303E0FF93329B03C01092D5012FC081E080930C
S11303F0D50186E591E00E94DD0984E591E00E9443
S1130400DD0980E591E00E94E7008091D701909199
S1130410D8016091CE017091CF010E941C14682F05
S113042081E090E00E9474148091D7019091D801EA
S11304306091CE017091CF010E941C14692F80E05D
S113044090E00E9474141092D601FF91EF91BF9135
S1130450AF919F918F917F916F915F914F913F9158
S11304602F910F900FBE0F901F9018951F920F920F
S11304700FB60F9211242F933F934F935F936F9373
S11304807F938F939F93AF93BF93CF93EF93FF93F8
S1130490C9B180910401C82789B180930401C7FFC1
S11304A00DC08CE491E00E949409882339F0809176
S11304B0D601811103C08FEF8093D601C6FF0DC012
S11304C08EE491E00E949409882339F08091D6014A
S11304D0811103C081E08093D601FF91EF91CF9108
S11304E0BF91AF919F918F917F916F915F914F9148
S11304F03F912F910F900FBE0F901F9018958091F0
S1130500D6018130A1F4F8948091D7019091D8015B
S11305104091D6012091CE013091CF01281B390B97
S11305204203C001439F900D112478940895F894D8
S11305308091D6014091D7015091D8019927819596
S11305400CF49095849F9001859F300D949F300DFD
S113055011247894C90108954F925F926F927F920B
S11305608F929F92AF92BF92CF92DF92EF92FF92BF
S1130570CF93DF9300D000D0CDB7DEB76B017C0101
S1130580F8940E94A30E2091D0013091D101621BF6
S1130590730B7093CA016093C9010E94A30E20914A
S11305A0E2013091E301621B730B70934701609386
S11305B046017894609146017091470180E090E093
S11305C00E94170B20E030E040E450E40E94C90B85
S11305D018160CF0E3C0F8940E94A30E6093E20195
S11305E07093E3018093E4019093E5017894609023
S11305F06201712C8EE698E0B3010E943014072E3C
S1130600000C880B990B0E94190B20E030E048EC99
S113061052E40E946F0A9B01AC01C701B6010E941B
S1130620FD094B015C0120E030E040E450E40E940D
S1130630CE0B2091DA013091DB014091DC01509125
S1130640DD010E94FE096B017C016093DA01709365
S1130650DB018093DC019093DD0180916001609166
S1130660610170E0680F711D660D771D072E000C87
S1130670880B990B0E94190B9B01AC0166E676E688
S113068081E892E40E946F0A2091DE013091DF013B
S11306904091E0015091E1010E94FD0920E030E029
S11306A040E450E40E946F0A20E030E040E252E46B
S11306B00E94CE0B69837A838B839C8320E030E095
S11306C04CE852E4C501B4010E94CE0B2B013C015D
S11306D020E030E040E251E4C701B6010E94CE0BB5
S11306E09B01AC01C301B2010E94FE099B01AC0154
S11306F069817A818B819C810E94FE090E94E10AB2
S113070070934501609344018092DE019092DF0171
S1130710A092E001B092E1016F3F7105A1F09CF05D
S11307208FEF90E0909345018093440180E090E046
S1130730A0EBB1E48093DA019093DB01A093DC0198
S1130740B093DD0117C077FF15C0109245011092D8
S1130750440120E030E0A901C701B6010E946A0A01
S113076087FF08C01092DA011092DB011092DC01BD
S11307701092DD018091D601813031F46091440101
S113078080E591E00E94CA008091D6018F3F31F448
S11307906091440180E591E00E94DB008091440176
S11307A0909145010F900F900F900F90DF91CF9192
S11307B0FF90EF90DF90CF90BF90AF909F908F907D
S11307C07F906F905F904F900895CF92DF92EF9259
S11307D0FF92CF93DF938AE491E00E94F009909115
S11307E0D601892B8093D601882309F432C18091E4
S11307F0D50181112EC18EE491E00E9494098111EA
S113080006C08CE491E00E949409882331F06AEFD9
S113081070E080E090E00E94D40E8AE491E00E94AF
S1130820F009882329F086E591E00E94CD09F5CFEF
S113083081E08093CD018EE491E00E9494098823A5
S113084031F08CE491E00E94940981118FC086E517
S113085091E00E94CD0984E591E00E94DD09F894BD
S11308600E94A30E6093D0017093D1018093D201B2
S11308709093D3010E94A30E6093E2017093E3016D
S11308808093E4019093E5010E94A30E2091D0018E
S11308903091D101621B730B7093CA016093C9013B
S11308A078948091CE019091CF018E37910518F400
S11308B0CAE5D0E002C0C1E9D0E0F8948091D70144
S11308C09091D8019093E7018093E6017894609128
S11308D0C9017091CA016C177D0788F48091D50114
S11308E081110DC080E090E00E94170B2FE632E1E9
S11308F043E85CE30E94CE0B0E94AC02E8CFF8947C
S11309000E94A30E6093D0017093D1018093D20111
S11309109093D3010E94A30E2091D0013091D10174
S1130920621B730B7093CA016093C9017894BE0172
S1130930DD0F880B990B0E94190B2FE632E143E877
S11309405CE30E94CE0B6B017C010E947F02C29784
S113095020F48091CD01882371F08091D50181111B
S11309600AC0C701B6010E94AC02EFCF1092D601B3
S11309701092CD016CCFF8940E94A30E6093D00125
S11309807093D1018093D2019093D3010E94A30E5E
S11309902091D0013091D101621B730B7093CA0175
S11309A06093C90178940E947F02059768F10E94C0
S11309B07F0283509048BC01660F771F80E090E06F
S11309C00E94170B2FE632E143E85CE30E94CE0B52
S11309D00E94410C6B017C012DEC3CEC4CEC5DE382
S11309E00E946A0A87FF07C08DECC82E8CECD82EB3
S11309F0ED2C8DE3F82EC701B6010E94AC02D3CFD3
S1130A008091D50181110CC06DEC7CEC8CEC9DE3E4
S1130A100E94AC028091D6018093D6018111F0CF5F
S1130A2081E08093D9011092DE011092DF011092CF
S1130A30E0011092E1011092DA011092DB011092B0
S1130A40DC011092DD01109260011092610110929C
S1130A50620180E090E0DF91CF91FF90EF90DF9012
S1130A60CF9008951092DE011092DF011092E00100
S1130A701092E1011092DA011092DB011092DC0174
S1130A801092DD01E0E6F1E01082118212820895F5
S1130A90CF93DF93C0915B0180915A018D3401F1B2
S1130AA038F4853409F44FC0863409F44CC04DC081
S1130AB0803521F0823509F446C047C0C093CC018B
S1130AC02DE7C29FC0011124959587959093CF017E
S1130AD08093CE016C2F8EE690E00E94741433C094
S1130AE086E591E00E94CD09F8948091D701909118
S1130AF0D8019C012C0F311DE90178948091D70114
S1130B009091D8018C179D0738F46DEC7CEC8CEC3B
S1130B109DE30E94AC02F2CF80E591E00E94E700E1
S1130B2086E591E00E94DD0969E170E080E090E0F3
S1130B300E94D40EF89481E090E09093D8018093C1
S1130B40D701789403C081E001C082E080935C0106
S1130B5080E090E0DF91CF910895F8948091D501E1
S1130B60813039F0329B05C084E591E00E94CD09C3
S1130B7038C080E591E00E94E70086E591E00E949C
S1130B80DD0984E591E00E94DD0983B7817F8460FB
S1130B9083BF809168008A7F8093680083B78160F7
S1130BA083BF7894889583B78E7F83BF80916800D4
S1130BB085608093680084E591E00E94CD0986E514
S1130BC091E00E94CD096AEF70E080E090E00E941D
S1130BD0D40E86E591E00E94DD091092D6011092B0
S1130BE0D501789480E090E00895CF92DF92FF924F
S1130BF00F931F93CF93DF93F82EC2E000E010E031
S1130C00D0E0CC24C394D12C8091D601813061F4FE
S1130C10C6010C2E01C0880F0A94EAF7D82B109253
S1130C20D601C15000E010E08091D6018F3F69F4F5
S1130C30C6010C2E01C0880F0A94EAF78095D823C8
S1130C401092D601C15000E010E0CF3F09F4FD2E10
S1130C500F5F1F4F6AE070E080E090E00E94D40EC6
S1130C60C7FD04C0083E83E0180774F28F2DDF919E
S1130C70CF911F910F91FF90DF90CF900895EF9245
S1130C80FF920F931F93CF93DF938EE491E00E9422
S1130C909409882309F4DEC08CE491E00E9494094D
S1130CA0882309F4D7C086E591E00E94CD098EE43B
S1130CB091E00E9494098111B6C08CE491E00E94F5
S1130CC094098111B0C001E010E0D2E086E591E022
S1130CD0CC2309F4A0C00E94DD098091D6018130A3
S1130CE009F04EC08EE491E00E949409882369F1D2
S1130CF086E591E00E94CD09F894E090D701F09048
S1130D00D8012FEFE21AF20A78948091D7019091DA
S1130D10D8018E159F0538F46DEC7CEC8CEC9DE3CA
S1130D200E94AC02F2CF80E591E00E94E7001093AC
S1130D30D8010093D70186E591E00E94DD0964E6BD
S1130D4070E080E090E00E94D40E8CE491E00E9478
S1130D509409882309F4C1CFF8941093D80100931F
S1130D60D701789484E591E00E94CD0964EF71E0A5
S1130D7080E090E00E94D40E1092D601C0E0ADCF86
S1130D808091D6018F3F09F0A1CF8091CB010E94C1
S1130D90F5058093CB01C0E0813071F0823009F019
S1130DA095CF86E591E00E94CD0964EF71E080E083
S1130DB090E00E94D40E29C086E591E00E94CD09FE
S1130DC068EE73E080E090E00E94D40E88E00E9418
S1130DD0F5058093CB01883018F0D093CC0105C081
S1130DE0880F880F8C5F8093CC016091CC012DE734
S1130DF0629FC0011124959587959093CF018093AC
S1130E00CE018EE690E00E94741486E591E00E9483
S1130E10DD09C0E05BCFDF91CF911F910F91FF906F
S1130E20EF900C94DD096AEF70E080E090E00E949E
S1130E30D40E0F5F1F4F0630110554F084E591E086
S1130E400E94DD0986E591E00E94DD09C1E02FCF13
S1130E50C0E02DCFDF91CF911F910F91FF90EF90C4
S1130E6008951F920F920FB60F9211248F938DEC59
S1130E708093B2008FEF809362018F910F900FBE29
S1130E800F901F90189564E086E591E00E94BB09DD
S1130E9065E084E591E00E94BB0942E061E080E501
S1130EA091E00E94B10066E08EE491E00E94810925
S1130EB067E08CE491E00E94810960E08AE491E0BB
S1130EC00E94ED0963E088E491E00C94A50988E4AC
S1130ED091E00E94A4098AE491E00E94EC098CE468
S1130EE091E00E9480098EE491E00E94800980E5EF
S1130EF091E00E94B00084E591E00E94BA0986E581
S1130F0091E00C94BA09CF93DF938091D90188239F
S1130F1011F1C3E6D1E02091C7013091C801CE019F
S1130F20835691408217930780F46AE070E08EE85C
S1130F3092E00E943E1169918EE892E00E94D810DE
S1130F408EE892E00E945311E6CF1092C8011092ED
S1130F50C7011092D90180E090E0DF91CF9108950C
S1130F60CF93DF93C8E5D1E08EE892E00E94491068
S1130F701816190634F48EE892E00E9451108993F1
S1130F80F3CF9091580180915E0198130AC090911B
S1130F90590180915D01981304C0DF91CF910C94A5
S1130FA04805DF91CF910895CF93DF9300D000D00F
S1130FB01F92CDB7DEB780915C01882309F440C04D
S1130FC06AE070E080E090E00E94D40E4AE050E0D5
S1130FD060915A0188EE91E00E94E30D69E071E0AE
S1130FE088EE91E00E947B0D80915F01898380915E
S1130FF05E018A8380915D018B8380915C018130E5
S113100031F480915A018C8380915B0103C08EE49A
S11310108C8381E48D836AE070E08EE892E00E9424
S11310203E1145E050E0BE016F5F7F4F8EE892E0D5
S11310300E94AB108EE892E00E94531110925C0162
S113104080E090E00F900F900F900F900F90DF9141
S1131050CF910895CF93DF93C0E7D0E0888181607A
S113106088830E94E5030E943F0688818E7F8883DF
S11310700E9432050E94D4070E94AD0581E090E0F1
S11310800E94830782E390E0DF91CF910C94100FCC
S11310900F931F93CF93DF9380918100887F8160AA
S11310A08093810080E48093A00089E08093A10074
S11310B081ED90E09093A9008093A80086E591E0EB
S11310C00E94BE0984E591E00E94BE098CE491E08F
S11310D00E9484098EE491E00E94840980E591E0F5
S11310E00E94B50084E690E00E94A10180935F0114
S11310F085E690E00E94A101D82F80935E0186E6E8
S113110090E00E94A101C82F80935D018EE690E0DB
S11311100E94A1018093CC019DE7899F8001112445
S1131120159507951093CF010093CE014C2F50E0F5
S11311305D2B052E000C660B770B4093000150933A
S11311400101609302017093030181E090E00E9429
S1131150A101C82F80E090E00E94A10190E0982FA7
S113116088278C0F911DB8010E941C149093D801FC
S11311708093D7018FE08DB987E08EB961E081E07B
S11311800E94DE0F60915F018EE892E00E942111BF
S113119060EB77E08EE892E00E94561162E080E016
S11311A00E94DE0F60E083E00E94DE0F60E081E1D8
S11311B00E94DE0F60E082E00E94DE0F62E080E1C8
S11311C00E94DE0F399842E050E067EF70E080E063
S11311D00E94EB0D42E050E06CE771E081E00E9478
S11311E0EB0D8AB18F738AB98BB1806C8BB9809106
S11311F0680084608093680080916D00806C8093A7
S11312006D003A98429A80916800826080936800E9
S113121080916C00846080936C002098289A80915F
S1131220680081608093680080916B008160809386
S11312306B0084E591E00E94CD0986E591E00E946F
S1131240CD098091B10087608093B1008091B10095
S1131250877F8093B1008091B0008C7F8093B00031
S11312608091700081608093700068EE73E080E08C
S113127090E00E94D40E86E591E00E94DD09789406
S113128064E670E080E090E00E94D40E1092D601F3
S11312908091D7019091D8012091CE013091CF0156
S11312A0B9010E941C14049730F18091D7019091E8
S11312B0D801B9010E941C142350310982179307E5
S11312C0D0F486E591E00E94CD096AE070E08EE8F2
S11312D092E00E943E1145E050E06BE071E08EE840
S11312E092E00E94AB108EE892E0DF91CF911F91C3
S11312F00F910C94531186E591E00E94DD09E5CF2E
S11313000895FC01608308954AB121E030E0B901F9
S1131310FC01008002C0660F771F0A94E2F7CB013C
S1131320809584238AB90895FC0199B1892F90E0AE
S1131330008002C0959587950A94E2F781709927F9
S113134021E08227817008950895FC016083089547
S113135026B130E0A901FC01008002C055954795F3
S11313600A94E2F740FD03C08FEF9FEF089581E0F8
S113137090E008950895FC01608308954AB121E046
S113138030E0B901FC01008002C0660F771F0A94A7
S1131390E2F7CB01842B8AB908954BB121E030E008
S11313A0B901FC01008002C0660F771F0A94E2F7BE
S11313B0CB01809584238BB908954BB121E030E0B3
S11313C0B901FC01008002C0660F771F0A94E2F79E
S11313D0CB01842B8BB908950895FC016083089593
S11313E023B130E0A901FC01008002C05595479566
S11313F00A94E2F7CA01817008955058BB27AA27BE
S11314000E94150A0C948F0B0E94810B38F00E94E5
S1131410880B20F039F49F3F19F426F40C947E0BCA
S11314200EF4E095E7FB0C94780BE92F0E94A00BD7
S113143058F3BA17620773078407950720F079F405
S1131440A6F50C94C20B0EF4E0950B2EBA2FA02D2A
S11314500B01B90190010C01CA01A0011124FF275D
S1131460591B99F0593F50F4503E68F11A16F04058
S1131470A22F232F342F4427585FF3CF4695379557
S11314802795A795F0405395C9F77EF41F16BA0B1C
S1131490620B730B840BBAF09150A1F0FF0FBB1FCA
S11314A0661F771F881FC2F70EC0BA0F621F731F13
S11314B0841F48F4879577956795B795F7959E3F70
S11314C008F0B0CF9395880F08F09927EE0F979501
S11314D0879508950E94540B08F481E008950E94B2
S11314E0830A0C948F0B0E94880B58F00E94810B86
S11314F040F029F45F3F29F00C94780B51110C94BF
S1131500C30B0C947E0B0E94A00B68F39923B1F3D8
S1131510552391F3951B550BBB27AA276217730715
S1131520840738F09F5F5F4F220F331F441FAA1FA9
S1131530A9F335D00E2E3AF0E0E832D09150504065
S1131540E695001CCAF72BD0FE2F29D0660F771F13
S1131550881FBB1F261737074807AB07B0E809F0F9
S1131560BB0B802DBF01FF2793585F4F3AF09E3F7E
S1131570510578F00C94780B0C94C30B5F3FE4F3A3
S1131580983ED4F3869577956795B795F7959F5FC1
S1131590C9F7880F911D9695879597F90895E1E00D
S11315A0660F771F881FBB1F621773078407BA076C
S11315B020F0621B730B840BBA0BEE1F88F7E095C7
S11315C008950E94E80A6894B1110C94C30B08951D
S11315D00E94A80B88F09F5798F0B92F9927B7510C
S11315E0B0F0E1F0660F771F881F991F1AF0BA95C3
S11315F0C9F714C0B13091F00E94C20BB1E0089554
S11316000C94C20B672F782F8827B85F39F0B93F45
S1131610CCF3869577956795B395D9F73EF4909575
S11316208095709561957F4F8F4F9F4F0895E894F3
S113163009C097FB3EF490958095709561957F4F16
S11316408F4F9F4F9923A9F0F92F96E9BB279395C4
S1131650F695879577956795B795F111F8CFFAF4D4
S1131660BB0F11F460FF1BC06F5F7F4F8F4F9F4F05
S113167016C0882311F096E911C0772321F09EE863
S1131680872F762F05C0662371F096E8862F70E0C9
S113169060E02AF09A95660F771F881FDAF7880FA3
S11316A09695879597F90895990F0008550FAA0BF9
S11316B0E0E8FEEF16161706E807F907C0F0121661
S11316C01306E407F50798F0621B730B840B950B64
S11316D039F40A2661F0232B242B252B21F40895B9
S11316E00A2609F4A140A6958FEF811D811D089556
S11316F097F99F6780E870E060E008959FEF80ECC1
S1131700089500240A941616170618060906089563
S113171000240A9412161306140605060895092EC9
S11317200394000C11F4882352F0BB0F40F4BF2B38
S113173011F460FF04C06F5F7F4F8F4F9F4F089578
S113174057FD9058440F551F59F05F3F71F047956E
S1131750880F97FB991F61F09F3F79F08795089553
S1131760121613061406551FF2CF4695F1DF08C072
S1131770161617061806991FF1CF8695710561058F
S113178008940895E894BB2766277727CB0197F937
S113179008950E94540B08F48FEF08950E94E10B02
S11317A00C948F0B0E94810B38F00E94880B20F060
S11317B0952311F00C94780B0C947E0B11240C944B
S11317C0C30B0E94A00B70F3959FC1F3950F50E0DB
S11317D0551F629FF001729FBB27F00DB11D639FDF
S11317E0AA27F00DB11DAA1F649F6627B00DA11D85
S11317F0661F829F2227B00DA11D621F739FB00D2B
S1131800A11D621F839FA00D611D221F749F33279A
S1131810A00D611D231F849F600D211D822F762F33
S11318206A2F11249F5750409AF0F1F088234AF010
S1131830EE0FFF1FBB1F661F771F881F915050407C
S1131840A9F79E3F510580F00C94780B0C94C30BC0
S11318505F3FE4F3983ED4F3869577956795B79503
S1131860F795E7959F5FC1F7FE2B880F911D96951D
S1131870879597F9089519F416F40C947E0B0C943B
S1131880810C0E94A80BB8F39923C9F3B6F39F57B0
S1131890550B87FF0E948F0C0024A0E640EA9001BC
S11318A080585695979528F4805C660F771F881F9B
S11318B020F026173707480730F4621B730B840B9C
S11318C0202931294A2BA6951794079420253125E0
S11318D04A2758F7660F771F881F20F02617370707
S11318E0480730F4620B730B840B200D311D411D2E
S11318F0A09581F7B901842F9158880F9695879503
S113190008959F3F31F0915020F48795779567951E
S1131910B795880F911D9695879597F908959150DD
S11319205040660F771F881FD2F7089580E090E03B
S113193008951F920F920FB60F9211242F938F9335
S11319409F93EF93FF93E091F801F091F901808167
S1131950E091FE01F091FF0182FD12C0908180911F
S113196001028F5F8F7320910202821751F0E09180
S11319700102F0E0E851FE4F958F8093010201C00F
S11319808081FF91EF919F918F912F910F900FBEC6
S11319900F901F9018951F920F920FB60F9211245B
S11319A02F933F934F935F936F937F938F939F9363
S11319B0AF93BF93EF93FF9388EE91E00E94AA1137
S11319C0FF91EF91BF91AF919F918F917F916F9113
S11319D05F914F913F912F910F900FBE0F901F90E9
S11319E0189588EE91E00E945F1121E0892B09F49B
S11319F020E0822F0895E8EEF1E01382128288EE4F
S1131A0093E0A0E0B0E084839583A683B78386E364
S1131A1091E09183808385EC90E09587848784ECC2
S1131A2090E09787868780EC90E0918B808B81ECA7
S1131A3090E0938B828B82EC90E0958B848B86EC88
S1131A4090E0978B868B118E128E138E148E0895D0
S1131A5008950E941B0F0E94280D0E944808CCE99B
S1131A60D1E10E942A082097E1F30E949C11F9CF4A
S1131A70CF92DF92EF92FF920F931F93CF93DF9356
S1131A806C017A018B01C0E0D0E0CE15DF0581F056
S1131A90D8016D918D01D601ED91FC910190F081F9
S1131AA0E02DC6010995892B11F02196EECF7E0118
S1131AB0C701DF91CF911F910F91FF90EF90DF90BD
S1131AC0CF9008956115710579F0FB010190002014
S1131AD0E9F73197AF01461B570BDC01ED91FC91FF
S1131AE00280F381E02D099480E090E0089561E1A3
S1131AF071E00C94620D0F931F93CF93DF93EC016D
S1131B000E94620D8C01CE010E94770D800F911FFF
S1131B10DF91CF911F910F9108958F929F92AF9271
S1131B20BF92EF92FF920F931F93CF93DF93CDB7A2
S1131B30DEB7A1970FB6F894DEBF0FBECDBF7C0110
S1131B40FA01CB0119A2223008F42AE08E010F5DBC
S1131B501F4F822E912CA12CB12CBF01A501940101
S1131B600E944414F901CA01015011096A3010F4A9
S1131B70605D01C0695CD8016C93232B242B252B59
S1131B8061F7B801C7010E94620DA1960FB6F894DF
S1131B90DEBF0FBECDBFDF91CF911F910F91FF909C
S1131BA0EF90BF90AF909F908F90089521153105CD
S1131BB041F4DC01ED91FC910190F081E02D642F62
S1131BC009940C948D0D9A01462F50E060E070E06A
S1131BD00C94D60D08958230E8F4E82FF0E0EE0F6F
S1131BE0FF1FEB5FFE4F71836083813041F0809172
S1131BF069008C7F482B40936900E89A089580918E
S1131C006900837F440F551F440F551F482B409391
S1131C106900E99A08951F920F920FB60F9211244A
S1131C202F933F934F935F936F937F938F939F93E0
S1131C30AF93BF93EF93FF93E0910501F0910601F9
S1131C400995FF91EF91BF91AF919F918F917F91F2
S1131C506F915F914F913F912F910F900FBE0F9015
S1131C601F9018951F920F920FB60F9211242F9365
S1131C703F934F935F936F937F938F939F93AF9310
S1131C80BF93EF93FF93E0910701F0910801099549
S1131C90FF91EF91BF91AF919F918F917F916F9140
S1131CA05F914F913F912F910F900FBE0F901F9016
S1131CB018951F920F920FB60F9211242F933F93F2
S1131CC08F939F93AF93BF938091860290918702E5
S1131CD0A0918802B09189023091850223E0230FFC
S1131CE02D3720F40196A11DB11D05C026E8230F50
S1131CF00296A11DB11D20938502809386029093C4
S1131D008702A0938802B093890280918A029091FD
S1131D108B02A0918C02B0918D020196A11DB11D80
S1131D2080938A0290938B02A0938C02B0938D02CD
S1131D30BF91AF919F918F913F912F910F900FBEC3
S1131D400F901F9018952FB7F894609186027091A8
S1131D50870280918802909189022FBF08953FB72E
S1131D60F89480918A0290918B02A0918C02B09198
S1131D708D0226B5A89B05C02F3F19F00196A11D21
S1131D80B11D3FBFBA2FA92F982F8827820F911D0D
S1131D90A11DB11DBC01CD0142E0660F771F881F54
S1131DA0991F4A95D1F708958F929F92AF92BF924F
S1131DB0CF92DF92EF92FF926B017C010E94AF0EF3
S1131DC04B015C01C114D104E104F10401F10E944E
S1131DD034120E94AF0EDC01CB0188199909AA09BB
S1131DE0BB09883E9340A105B10560F321E0C21A06
S1131DF0D108E108F10888EE880E83E0981EA11C42
S1131E00B11CC114D104E104F10419F7DBCFFF9034
S1131E10EF90DF90CF90BF90AF909F908F900895F8
S1131E208230910538F0880F991F880F991F059704
S1131E300197F1F70895789484B5826084BD84B5E0
S1131E40816084BD85B5826085BD85B5816085BDB1
S1131E50EEE6F0E0808181608083E1E8F0E01082CA
S1131E60808182608083808181608083E0E8F0E00B
S1131E70808181608083E1EBF0E0808184608083F5
S1131E80E0EBF0E0808181608083EAE7F0E080812C
S1131E90846080838081826080838081816080838C
S1131EA08081806880831092C10008951F93CF932E
S1131EB0DF93182FEB0161E00E94DE0F209711F4ED
S1131EC060E004C0CF3FD10539F461E0812FDF9198
S1131ED0CF911F910C941A10E12FF0E0EC54FF4FB6
S1131EE0E491E330F9F048F4E130B9F0E230A1F5DF
S1131EF084B5806284BDC8BD34C0E730E9F0E83001
S1131F0019F1E43049F5809180008062809380006B
S1131F10D0938B00C0938A0024C084B5806884BDAC
S1131F20C7BD1FC080918000806880938000D093DB
S1131F308900C093880015C08091B00080688093A8
S1131F40B000C093B3000DC08091B0008062809354
S1131F50B000C093B40005C0C038D1050CF0B5CFB3
S1131F60AFCFDF91CF911F910895833081F028F492
S1131F70813099F08230A1F008958730A9F088303B
S1131F80B9F08430D1F4809180008F7D03C08091BA
S1131F9080008F7780938000089584B58F7702C086
S1131FA084B58F7D84BD08958091B0008F7703C080
S1131FB08091B0008F7D8093B0000895CF93DF931C
S1131FC090E0FC01E853FF4F2491FC01E452FF4FE1
S1131FD08491882361F190E0880F991FFC01E650F9
S1131FE0FF4FC591D491FC01E051FF4FA591B491ED
S1131FF0611109C09FB7F894888120958223888352
S1132000EC912E230BC0623061F49FB7F894888161
S1132010322F309583238883EC912E2B2C939FBFF2
S113202006C08FB7F894E8812E2B28838FBFDF91E9
S1132030CF9108951F93CF93DF93282F30E0F901B8
S1132040EC54FF4F8491F901E853FF4FD491F90107
S1132050E452FF4FC491CC23C1F0162F81110E948A
S1132060B50FEC2FF0E0EE0FFF1FE051FF4FA591ED
S1132070B4919FB7F894111104C08C91D095D823D2
S113208002C0EC91DE2BDC939FBFDF91CF911F91B7
S113209008958091C20290E02091C302821B9109AD
S11320A008959091C3028091C202981750F4E92FC9
S11320B0F0E0EC53FD4F208130E09F5F9093C3022A
S11320C002C02FEF3FEFC9010895E091C302809150
S11320D0C202E81730F4F0E0EC53FD4F808190E049
S11320E008958FEF9FEF08950895CF93DF93EC0148
S11320F0E0919A02F0919B023097F1F09091C30223
S11321008091C2029817C0F090E0292F30E0261782
S1132110370754F4DE01A20FB31F4C91D901AC531D
S1132120BD4F4C939F5FF1CF1092C3026093C202E4
S1132130CB01DF91CF910994DF91CF910895E09184
S11321409C02F0919D02309729F01092A002109207
S11321509F0209940895CF92DF92EF92FF920F931A
S11321601F93CF93DF937C01CB018A0120919E02C0
S1132170222389F0EB016B01C40ED51ECC15DD05BD
S113218069F06991D701ED91FC910190F081E02D06
S1132190C7010995F3CF642F0E94AD12C801DF91E6
S11321A0CF911F910F91FF90EF90DF90CF90089502
S11321B0CF93DF931F92CDB7DEB7698320919E0240
S11321C02223D1F020919F02203240F021E030E020
S11321D0FC013383228380E090E015C08091A0024B
S11321E0E82FF0E0EF55FD4F998190838F5F809346
S11321F0A00280939F0205C061E0CE0101960E9477
S1132200AD1281E090E00F90DF91CF910895FC0131
S11322101382128288EE93E0A0E0B0E08483958379
S1132220A683B78384E291E091838083089510921A
S1132230C3021092C2021092A00210929F020C9448
S11322403512CF93DF93EC01862F0E9453128FE94E
S113225090E10E94DA1285E790E10E94D512CE0146
S1132260DF91CF910C94171181E080939E026093CB
S1132270C1021092A00210929F0208950C9434118E
S11322800F93062F21E040919F0261EA72E0809152
S1132290C1020E9457121092A00210929F02109243
S11322A09E020F91089561E00C94401170939B027B
S11322B060939A0208958EE892E00C940711FC0151
S11322C0918D228D892F90E0805C9F4F821B910914
S11322D08F7399270895FC01918D828D981731F0A1
S11322E0828DE80FF11D858D90E008958FEF9FEFAB
S11322F00895FC01918D828D981761F0828DDF0124
S1132300A80FB11D5D968C91928D9F5F9F73928FE4
S113231090E008958FEF9FEF0895FC01538D448D55
S1132320252F30E0842F90E0821B930B541710F07C
S1132330CF9608950197089581EF9CE0892B49F089
S113234080E090E0892B29F00E94F10C81110C941B
S113235000000895FC01848DDF01A80FB11DA35A6C
S1132360BF4F2C91848D90E001968F739927848FB1
S1132370A689B7892C93A089B1898C9180648C93A8
S1132380938D848D981306C00288F389E02D808193
S11323908F7D80830895EF92FF920F931F93CF93C5
S11323A0DF93EC0181E0888F9B8D8C8D981305C0A1
S11323B0E889F989808185FD24C0F62E0B8D10E013
S11323C00F5F1F4F0F731127E02E8C8DE8120CC086
S11323D00FB607FCFACFE889F989808185FFF5CF2C
S11323E0CE010E94AA11F1CF8B8DFE01E80FF11DE1
S11323F0E35AFF4FF0820B8FEA89FB898081806268
S113240007C0EE89FF896083E889F9898081806447
S1132410808381E090E0DF91CF911F910F91FF9035
S1132420EF900895CF93DF93EC01888D8823C9F052
S1132430EA89FB89808185FD05C0A889B9898C91C9
S113244086FD0FC00FB607FCF5CF808185FFF2CF64
S1132450A889B9898C9185FFEDCFCE010E94AA117C
S1132460E7CFDF91CF91089508951092510381E051
S113247080934F0310924E0361E082E10E941A1090
S113248061E083E10E941A10E9EBF0E080818E7F25
S1132490808380818D7F808388E48093B80085E485
S11324A08093BC000895880F8093BA0008950F9319
S11324B0413208F04AC0909151039111FCCF32E0AF
S11324C03093510300934F033FEF3093E402109293
S11324D0290340932803562FAAE2B3E0FB013E2FC1
S11324E0351B341718F431913D93F9CF10925003F2
S11324F030915003880F832B8093500380914E03B7
S1132500813061F410924E03809150038093BB009C
S11325108091BC0083FDF8CF85EC01C085EE8093EB
S1132520BC00222321F0809151038230D1F38091A9
S1132530E4028F3F79F08091E402803241F080918F
S1132540E402803331F094E005C091E003C092E0EE
S113255001C093E0892F0F91089540910603262F1F
S113256030E0240F311D21323105DCF42091510378
S11325702430C9F4FC0180E090E0861758F43091CF
S113258006032191DC01A85FBC4FA30FB11D2C935E
S11325900196F3CF80910603680F6093060380E0F1
S11325A0089581E0089582E0089590934B03809309
S11325B04A03089590934D0380934C03089585ED49
S11325C08093BC008091BC0084FDFCCF1092510329
S11325D0089585EC8093BC001092510308951F92D6
S11325E00F920FB60F9211242F933F934F935F9343
S11325F06F937F938F939F93AF93BF93EF93FF93C7
S11326008091B900887F803609F49EC078F58832BD
S113261009F45DC090F4803109F456C038F488237D
S113262009F4F5C0883009F44FC0F5C0883109F4C5
S11326304EC0803209F45FC0EEC0803409F46AC031
S113264058F4803309F457C0883309F0E4C0809308
S1132650E4020E94E912DFC0803509F44FC08835D6
S113266009F45DC0883409F0D6C0D3C0883909F4B0
S1132670C4C0A8F4883709F467C038F4883609F46C
S113268063C0803709F460C0C6C0883809F4B5C097
S1132690803909F45FC0803809F0BDC05BC0803B5D
S11326A009F483C038F4803A09F466C0883A09F41E
S11326B07CC0B1C0803C09F4A4C0883C09F4A1C02A
S11326C0883B09F487C0A7C08091500310C0909143
S11326D0290380912803981770F5E091290381E07C
S11326E08E0F80932903F0E0E65DFC4F8081809398
S11326F0BB0085EC83C08093E4028BC0E091290386
S113270081E08E0F809329038091BB00F0E0E65DA9
S1132710FC4F808390912903809128036BC0E09142
S1132720290381E08E0F809329038091BB00F0E0A0
S1132730E65DFC4F808380914F0381116AC081E084
S113274080934E0384EA5EC083E080935103109229
S1132750E502CFCF8091E502803208F04EC0E091CF
S1132760E50281E08E0F8093E5028091BB00F0E0EA
S1132770EA51FD4F8083BDCF0E94E9128091E502AA
S1132780803230F4E091E502F0E0EA51FD4F10822E
S11327906091E50270E0E0914A03F0914B0386EE0C
S11327A092E009951092E50236C084E080935103CB
S11327B01092070310920603E0914C03F0914D032D
S11327C0099580910603811105C081E08093060379
S11327D010920803E091070381E08E0F80930703B2
S11327E0F0E0E85FFC4F80818093BB009091070389
S11327F080910603981708F47CCF85E88093BC0089
S11328000AC085EC8093BC001092510304C010925E
S1132810E4020E94DF12FF91EF91BF91AF919F916B
S11328208F917F916F915F914F913F912F910F9075
S11328300FBE0F901F901895AA1BBB1B51E107C038
S1132840AA1FBB1FA617B70710F0A61BB70B881F3C
S1132850991F5A95A9F780959095BC01CD010895CB
S113286097FB072E16F4009407D077FD09D00E9439
S11328701C1407FC05D03EF4909581959F4F089554
S1132880709561957F4F0895A1E21A2EAA1BBB1B78
S1132890FD010DC0AA1FBB1FEE1FFF1FA217B30728
S11328A0E407F50720F0A21BB30BE40BF50B661F3E
S11328B0771F881F991F1A9469F760957095809502
S11328C090959B01AC01BD01CF010895EE0FFF1F50
S11328D00590F491E02D0994F999FECF92BD81BD44
S11328E0F89A992780B50895262FF999FECF1FBA33
S11328F092BD81BD20BD0FB6F894FA9AF99A0FBE25
S11329000196089510E0C5E8D0E004C0FE010E94DD
S111291066142196C638D107C9F7F894FFCF94
S113291E0A000000FFEA0DEA0D2000737461727460
S113292E000D0A006E616E00696E66006F766600B9
S113293E00000000D810AB10960C74104910511002
S113294E651000000000CB11380D8D1112125F11AD
S107295E79116B116B
S9030000FC
